:100000000C9434000C943E000C943E000C943E0082
:100010000C943E000C943E000C943E000C943E0068
:100020000C943E000C943E000C943E000C943E0058
:100030000C943E000C943E000C943E000C943E0048
:100040000C943E000C943E000C943E000C943E0038
:100050000C943E000C943E000C943E000C943E0028
:100060000C943E000C943E0011241FBECFEFD8E04C
:10007000DEBFCDBF0E9440000C9473000C940000C2
:1000800080E480937C0087E880937A00569A93E01E
:1000900094BD84B5806884BD95BD17BC80917A00FD
:1000A000806480937A0080917A0086FDFCCF8091F5
:1000B0007800909179008530910558F484B58F7758
:1000C00084BD5E988FE39CE90197F1F700C00000C2
:1000D000E5CF24B5206824BD019796958795969520
:0A00E000879587BDEFCFF894FFCF9E
:00000001FF
